{"contracts/LogWriter.sol":{"LogWriter":{"abi":[{"anonymous":false,"inputs":[{"indexed":true,"internalType":"address","name":"sender","type":"address"},{"indexed":true,"internalType":"bytes32","name":"tag","type":"bytes32"},{"indexed":false,"internalType":"bytes","name":"data","type":"bytes"},{"indexed":false,"internalType":"bytes32","name":"dataHash","type":"bytes32"},{"indexed":false,"internalType":"uint256","name":"timestamp","type":"uint256"}],"name":"DataWritten","type":"event"},{"inputs":[{"internalType":"bytes[]","name":"items","type":"bytes[]"},{"internalType":"bytes32","name":"tag","type":"bytes32"}],"name":"writeBatch","outputs":[{"internalType":"bytes32[]","name":"hashs","type":"bytes32[]"}],"stateMutability":"nonpayable","type":"function"},{"inputs":[{"internalType":"bytes","name":"data","type":"bytes"},{"internalType":"bytes32","name":"tag","type":"bytes32"}],"name":"writeBytes","outputs":[{"internalType":"bytes32","name":"hash","type":"bytes32"}],"stateMutability":"nonpayable","type":"function"},{"inputs":[{"internalType":"bytes","name":"text","type":"bytes"},{"internalType":"bytes32","name":"tag","type":"bytes32"}],"name":"writeString","outputs":[{"internalType":"bytes32","name":"hash","type":"bytes32"}],"stateMutability":"nonpayable","type":"function"}],"evm":{"bytecode":{"linkReferences":{},"object":"608060405234801561001057600080fd5b506108c4806100206000396000f3fe608060405234801561001057600080fd5b50600436106100415760003560e01c80632059551814610046578063971c2f1714610076578063a1fa65e4146100a6575b600080fd5b610060600480360381019061005b91906103f2565b6100d6565b60405161006d9190610461565b60405180910390f35b610090600480360381019061008b91906103f2565b61014e565b60405161009d9190610461565b60405180910390f35b6100c060048036038101906100bb91906104d2565b6101fd565b6040516100cd91906105f0565b60405180910390f35b600083836040516100e8929190610651565b60405180910390209050813373ffffffffffffffffffffffffffffffffffffffff167f40d02628e1a559c346683636d14de01be76531c5d18de16c149cafd2e7ac03c98686854260405161013f94939291906106d2565b60405180910390a39392505050565b60008084848080601f016020809104026020016040519081016040528093929190818152602001838380828437600081840152601f19601f82011690508083019250505050505050905080805190602001209150823373ffffffffffffffffffffffffffffffffffffffff167f40d02628e1a559c346683636d14de01be76531c5d18de16c149cafd2e7ac03c98385426040516101ed93929190610780565b60405180910390a3509392505050565b606060008484905090508067ffffffffffffffff811115610221576102206107be565b5b60405190808252806020026020018201604052801561024f5781602001602082028036833780820191505090505b50915060005b8181101561034457366000878784818110610273576102726107ed565b5b9050602002810190610285919061082b565b915091506000828260405161029b929190610651565b60405180910390209050808685815181106102b9576102b86107ed565b5b602002602001018181525050863373ffffffffffffffffffffffffffffffffffffffff167f40d02628e1a559c346683636d14de01be76531c5d18de16c149cafd2e7ac03c985858a8981518110610313576103126107ed565b5b60200260200101514260405161032c94939291906106d2565b60405180910390a35050508080600101915050610255565b50509392505050565b600080fd5b600080fd5b600080fd5b600080fd5b600080fd5b60008083601f84011261037c5761037b610357565b5b8235905067ffffffffffffffff8111156103995761039861035c565b5b6020830191508360018202830111156103b5576103b4610361565b5b9250929050565b6000819050919050565b6103cf816103bc565b81146103da57600080fd5b50565b6000813590506103ec816103c6565b92915050565b60008060006040848603121561040b5761040a61034d565b5b600084013567ffffffffffffffff81111561042957610428610352565b5b61043586828701610366565b93509350506020610448868287016103dd565b9150509250925092565b61045b816103bc565b82525050565b60006020820190506104766000830184610452565b92915050565b60008083601f84011261049257610491610357565b5b8235905067ffffffffffffffff8111156104af576104ae61035c565b5b6020830191508360208202830111156104cb576104ca610361565b5b9250929050565b6000806000604084860312156104eb576104ea61034d565b5b600084013567ffffffffffffffff81111561050957610508610352565b5b6105158682870161047c565b93509350506020610528868287016103dd565b9150509250925092565b600081519050919050565b600082825260208201905092915050565b6000819050602082019050919050565b610567816103bc565b82525050565b6000610579838361055e565b60208301905092915050565b6000602082019050919050565b600061059d82610532565b6105a7818561053d565b93506105b28361054e565b8060005b838110156105e35781516105ca888261056d565b97506105d583610585565b9250506001810190506105b6565b5085935050505092915050565b6000602082019050818103600083015261060a8184610592565b905092915050565b600081905092915050565b82818337600083830152505050565b60006106388385610612565b935061064583858461061d565b82840190509392505050565b600061065e82848661062c565b91508190509392505050565b600082825260208201905092915050565b6000601f19601f8301169050919050565b6000610698838561066a565b93506106a583858461061d565b6106ae8361067b565b840190509392505050565b6000819050919050565b6106cc816106b9565b82525050565b600060608201905081810360008301526106ed81868861068c565b90506106fc6020830185610452565b61070960408301846106c3565b95945050505050565b600081519050919050565b60005b8381101561073b578082015181840152602081019050610720565b60008484015250505050565b600061075282610712565b61075c818561066a565b935061076c81856020860161071d565b6107758161067b565b840191505092915050565b6000606082019050818103600083015261079a8186610747565b90506107a96020830185610452565b6107b660408301846106c3565b949350505050565b7f4e487b7100000000000000000000000000000000000000000000000000000000600052604160045260246000fd5b7f4e487b7100000000000000000000000000000000000000000000000000000000600052603260045260246000fd5b600080fd5b600080fd5b600080fd5b600080833560016020038436030381126108485761084761081c565b5b80840192508235915067ffffffffffffffff82111561086a57610869610821565b5b60208301925060018202360383131561088657610885610826565b5b50925092905056fea26469706673582212200f863f852841ce8c989306610687c6dca25771ec89560ddbabe07639ebc0b0ed64736f6c63430008180033","opcodes":"PUSH1 0x80 PUSH1 0x40 MSTORE CALLVALUE DUP1 ISZERO PUSH2 0x10 JUMPI PUSH1 0x0 DUP1 REVERT JUMPDEST POP PUSH2 0x8C4 DUP1 PUSH2 0x20 PUSH1 0x0 CODECOPY PUSH1 0x0 RETURN INVALID PUSH1 0x80 PUSH1 0x40 MSTORE CALLVALUE DUP1 ISZERO PUSH2 0x10 JUMPI PUSH1 0x0 DUP1 REVERT JUMPDEST POP PUSH1 0x4 CALLDATASIZE LT PUSH2 0x41 JUMPI PUSH1 0x0 CALLDATALOAD PUSH1 0xE0 SHR DUP1 PUSH4 0x20595518 EQ PUSH2 0x46 JUMPI DUP1 PUSH4 0x971C2F17 EQ PUSH2 0x76 JUMPI DUP1 PUSH4 0xA1FA65E4 EQ PUSH2 0xA6 JUMPI JUMPDEST PUSH1 0x0 DUP1 REVERT JUMPDEST PUSH2 0x60 PUSH1 0x4 DUP1 CALLDATASIZE SUB DUP2 ADD SWAP1 PUSH2 0x5B SWAP2 SWAP1 PUSH2 0x3F2 JUMP JUMPDEST PUSH2 0xD6 JUMP JUMPDEST PUSH1 0x40 MLOAD PUSH2 0x6D SWAP2 SWAP1 PUSH2 0x461 JUMP JUMPDEST PUSH1 0x40 MLOAD DUP1 SWAP2 SUB SWAP1 RETURN JUMPDEST PUSH2 0x90 PUSH1 0x4 DUP1 CALLDATASIZE SUB DUP2 ADD SWAP1 PUSH2 0x8B SWAP2 SWAP1 PUSH2 0x3F2 JUMP JUMPDEST PUSH2 0x14E JUMP JUMPDEST PUSH1 0x40 MLOAD PUSH2 0x9D SWAP2 SWAP1 PUSH2 0x461 JUMP JUMPDEST PUSH1 0x40 MLOAD DUP1 SWAP2 SUB SWAP1 RETURN JUMPDEST PUSH2 0xC0 PUSH1 0x4 DUP1 CALLDATASIZE SUB DUP2 ADD SWAP1 PUSH2 0xBB SWAP2 SWAP1 PUSH2 0x4D2 JUMP JUMPDEST PUSH2 0x1FD JUMP JUMPDEST PUSH1 0x40 MLOAD PUSH2 0xCD SWAP2 SWAP1 PUSH2 0x5F0 JUMP JUMPDEST PUSH1 0x40 MLOAD DUP1 SWAP2 SUB SWAP1 RETURN JUMPDEST PUSH1 0x0 DUP4 DUP4 PUSH1 0x40 MLOAD PUSH2 0xE8 SWAP3 SWAP2 SWAP1 PUSH2 0x651 JUMP JUMPDEST PUSH1 0x40 MLOAD DUP1 SWAP2 SUB SWAP1 KECCAK256 SWAP1 POP DUP2 CALLER PUSH20 0xFFFFFFFFFFFFFFFFFFFFFFFFFFFFFFFFFFFFFFFF AND PUSH32 0x40D02628E1A559C346683636D14DE01BE76531C5D18DE16C149CAFD2E7AC03C9 DUP7 DUP7 DUP6 TIMESTAMP PUSH1 0x40 MLOAD PUSH2 0x13F SWAP5 SWAP4 SWAP3 SWAP2 SWAP1 PUSH2 0x6D2 JUMP JUMPDEST PUSH1 0x40 MLOAD DUP1 SWAP2 SUB SWAP1 LOG3 SWAP4 SWAP3 POP POP POP JUMP JUMPDEST PUSH1 0x0 DUP1 DUP5 DUP5 DUP1 DUP1 PUSH1 0x1F ADD PUSH1 0x20 DUP1 SWAP2 DIV MUL PUSH1 0x20 ADD PUSH1 0x40 MLOAD SWAP1 DUP2 ADD PUSH1 0x40 MSTORE DUP1 SWAP4 SWAP3 SWAP2 SWAP1 DUP2 DUP2 MSTORE PUSH1 0x20 ADD DUP4 DUP4 DUP1 DUP3 DUP5 CALLDATACOPY PUSH1 0x0 DUP2 DUP5 ADD MSTORE PUSH1 0x1F NOT PUSH1 0x1F DUP3 ADD AND SWAP1 POP DUP1 DUP4 ADD SWAP3 POP POP POP POP POP POP POP SWAP1 POP DUP1 DUP1 MLOAD SWAP1 PUSH1 0x20 ADD KECCAK256 SWAP2 POP DUP3 CALLER PUSH20 0xFFFFFFFFFFFFFFFFFFFFFFFFFFFFFFFFFFFFFFFF AND PUSH32 0x40D02628E1A559C346683636D14DE01BE76531C5D18DE16C149CAFD2E7AC03C9 DUP4 DUP6 TIMESTAMP PUSH1 0x40 MLOAD PUSH2 0x1ED SWAP4 SWAP3 SWAP2 SWAP1 PUSH2 0x780 JUMP JUMPDEST PUSH1 0x40 MLOAD DUP1 SWAP2 SUB SWAP1 LOG3 POP SWAP4 SWAP3 POP POP POP JUMP JUMPDEST PUSH1 0x60 PUSH1 0x0 DUP5 DUP5 SWAP1 POP SWAP1 POP DUP1 PUSH8 0xFFFFFFFFFFFFFFFF DUP2 GT ISZERO PUSH2 0x221 JUMPI PUSH2 0x220 PUSH2 0x7BE JUMP JUMPDEST JUMPDEST PUSH1 0x40 MLOAD SWAP1 DUP1 DUP3 MSTORE DUP1 PUSH1 0x20 MUL PUSH1 0x20 ADD DUP3 ADD PUSH1 0x40 MSTORE DUP1 ISZERO PUSH2 0x24F JUMPI DUP2 PUSH1 0x20 ADD PUSH1 0x20 DUP3 MUL DUP1 CALLDATASIZE DUP4 CALLDATACOPY DUP1 DUP3 ADD SWAP2 POP POP SWAP1 POP JUMPDEST POP SWAP2 POP PUSH1 0x0 JUMPDEST DUP2 DUP2 LT ISZERO PUSH2 0x344 JUMPI CALLDATASIZE PUSH1 0x0 DUP8 DUP8 DUP5 DUP2 DUP2 LT PUSH2 0x273 JUMPI PUSH2 0x272 PUSH2 0x7ED JUMP JUMPDEST JUMPDEST SWAP1 POP PUSH1 0x20 MUL DUP2 ADD SWAP1 PUSH2 0x285 SWAP2 SWAP1 PUSH2 0x82B JUMP JUMPDEST SWAP2 POP SWAP2 POP PUSH1 0x0 DUP3 DUP3 PUSH1 0x40 MLOAD PUSH2 0x29B SWAP3 SWAP2 SWAP1 PUSH2 0x651 JUMP JUMPDEST PUSH1 0x40 MLOAD DUP1 SWAP2 SUB SWAP1 KECCAK256 SWAP1 POP DUP1 DUP7 DUP6 DUP2 MLOAD DUP2 LT PUSH2 0x2B9 JUMPI PUSH2 0x2B8 PUSH2 0x7ED JUMP JUMPDEST JUMPDEST PUSH1 0x20 MUL PUSH1 0x20 ADD ADD DUP2 DUP2 MSTORE POP POP DUP7 CALLER PUSH20 0xFFFFFFFFFFFFFFFFFFFFFFFFFFFFFFFFFFFFFFFF AND PUSH32 0x40D02628E1A559C346683636D14DE01BE76531C5D18DE16C149CAFD2E7AC03C9 DUP6 DUP6 DUP11 DUP10 DUP2 MLOAD DUP2 LT PUSH2 0x313 JUMPI PUSH2 0x312 PUSH2 0x7ED JUMP JUMPDEST JUMPDEST PUSH1 0x20 MUL PUSH1 0x20 ADD ADD MLOAD TIMESTAMP PUSH1 0x40 MLOAD PUSH2 0x32C SWAP5 SWAP4 SWAP3 SWAP2 SWAP1 PUSH2 0x6D2 JUMP JUMPDEST PUSH1 0x40 MLOAD DUP1 SWAP2 SUB SWAP1 LOG3 POP POP POP DUP1 DUP1 PUSH1 0x1 ADD SWAP2 POP POP PUSH2 0x255 JUMP JUMPDEST POP POP SWAP4 SWAP3 POP POP POP JUMP JUMPDEST PUSH1 0x0 DUP1 REVERT JUMPDEST PUSH1 0x0 DUP1 REVERT JUMPDEST PUSH1 0x0 DUP1 REVERT JUMPDEST PUSH1 0x0 DUP1 REVERT JUMPDEST PUSH1 0x0 DUP1 REVERT JUMPDEST PUSH1 0x0 DUP1 DUP4 PUSH1 0x1F DUP5 ADD SLT PUSH2 0x37C JUMPI PUSH2 0x37B PUSH2 0x357 JUMP JUMPDEST JUMPDEST DUP3 CALLDATALOAD SWAP1 POP PUSH8 0xFFFFFFFFFFFFFFFF DUP2 GT ISZERO PUSH2 0x399 JUMPI PUSH2 0x398 PUSH2 0x35C JUMP JUMPDEST JUMPDEST PUSH1 0x20 DUP4 ADD SWAP2 POP DUP4 PUSH1 0x1 DUP3 MUL DUP4 ADD GT ISZERO PUSH2 0x3B5 JUMPI PUSH2 0x3B4 PUSH2 0x361 JUMP JUMPDEST JUMPDEST SWAP3 POP SWAP3 SWAP1 POP JUMP JUMPDEST PUSH1 0x0 DUP2 SWAP1 POP SWAP2 SWAP1 POP JUMP JUMPDEST PUSH2 0x3CF DUP2 PUSH2 0x3BC JUMP JUMPDEST DUP2 EQ PUSH2 0x3DA JUMPI PUSH1 0x0 DUP1 REVERT JUMPDEST POP JUMP JUMPDEST PUSH1 0x0 DUP2 CALLDATALOAD SWAP1 POP PUSH2 0x3EC DUP2 PUSH2 0x3C6 JUMP JUMPDEST SWAP3 SWAP2 POP POP JUMP JUMPDEST PUSH1 0x0 DUP1 PUSH1 0x0 PUSH1 0x40 DUP5 DUP7 SUB SLT ISZERO PUSH2 0x40B JUMPI PUSH2 0x40A PUSH2 0x34D JUMP JUMPDEST JUMPDEST PUSH1 0x0 DUP5 ADD CALLDATALOAD PUSH8 0xFFFFFFFFFFFFFFFF DUP2 GT ISZERO PUSH2 0x429 JUMPI PUSH2 0x428 PUSH2 0x352 JUMP JUMPDEST JUMPDEST PUSH2 0x435 DUP7 DUP3 DUP8 ADD PUSH2 0x366 JUMP JUMPDEST SWAP4 POP SWAP4 POP POP PUSH1 0x20 PUSH2 0x448 DUP7 DUP3 DUP8 ADD PUSH2 0x3DD JUMP JUMPDEST SWAP2 POP POP SWAP3 POP SWAP3 POP SWAP3 JUMP JUMPDEST PUSH2 0x45B DUP2 PUSH2 0x3BC JUMP JUMPDEST DUP3 MSTORE POP POP JUMP JUMPDEST PUSH1 0x0 PUSH1 0x20 DUP3 ADD SWAP1 POP PUSH2 0x476 PUSH1 0x0 DUP4 ADD DUP5 PUSH2 0x452 JUMP JUMPDEST SWAP3 SWAP2 POP POP JUMP JUMPDEST PUSH1 0x0 DUP1 DUP4 PUSH1 0x1F DUP5 ADD SLT PUSH2 0x492 JUMPI PUSH2 0x491 PUSH2 0x357 JUMP JUMPDEST JUMPDEST DUP3 CALLDATALOAD SWAP1 POP PUSH8 0xFFFFFFFFFFFFFFFF DUP2 GT ISZERO PUSH2 0x4AF JUMPI PUSH2 0x4AE PUSH2 0x35C JUMP JUMPDEST JUMPDEST PUSH1 0x20 DUP4 ADD SWAP2 POP DUP4 PUSH1 0x20 DUP3 MUL DUP4 ADD GT ISZERO PUSH2 0x4CB JUMPI PUSH2 0x4CA PUSH2 0x361 JUMP JUMPDEST JUMPDEST SWAP3 POP SWAP3 SWAP1 POP JUMP JUMPDEST PUSH1 0x0 DUP1 PUSH1 0x0 PUSH1 0x40 DUP5 DUP7 SUB SLT ISZERO PUSH2 0x4EB JUMPI PUSH2 0x4EA PUSH2 0x34D JUMP JUMPDEST JUMPDEST PUSH1 0x0 DUP5 ADD CALLDATALOAD PUSH8 0xFFFFFFFFFFFFFFFF DUP2 GT ISZERO PUSH2 0x509 JUMPI PUSH2 0x508 PUSH2 0x352 JUMP JUMPDEST JUMPDEST PUSH2 0x515 DUP7 DUP3 DUP8 ADD PUSH2 0x47C JUMP JUMPDEST SWAP4 POP SWAP4 POP POP PUSH1 0x20 PUSH2 0x528 DUP7 DUP3 DUP8 ADD PUSH2 0x3DD JUMP JUMPDEST SWAP2 POP POP SWAP3 POP SWAP3 POP SWAP3 JUMP JUMPDEST PUSH1 0x0 DUP2 MLOAD SWAP1 POP SWAP2 SWAP1 POP JUMP JUMPDEST PUSH1 0x0 DUP3 DUP3 MSTORE PUSH1 0x20 DUP3 ADD SWAP1 POP SWAP3 SWAP2 POP POP JUMP JUMPDEST PUSH1 0x0 DUP2 SWAP1 POP PUSH1 0x20 DUP3 ADD SWAP1 POP SWAP2 SWAP1 POP JUMP JUMPDEST PUSH2 0x567 DUP2 PUSH2 0x3BC JUMP JUMPDEST DUP3 MSTORE POP POP JUMP JUMPDEST PUSH1 0x0 PUSH2 0x579 DUP4 DUP4 PUSH2 0x55E JUMP JUMPDEST PUSH1 0x20 DUP4 ADD SWAP1 POP SWAP3 SWAP2 POP POP JUMP JUMPDEST PUSH1 0x0 PUSH1 0x20 DUP3 ADD SWAP1 POP SWAP2 SWAP1 POP JUMP JUMPDEST PUSH1 0x0 PUSH2 0x59D DUP3 PUSH2 0x532 JUMP JUMPDEST PUSH2 0x5A7 DUP2 DUP6 PUSH2 0x53D JUMP JUMPDEST SWAP4 POP PUSH2 0x5B2 DUP4 PUSH2 0x54E JUMP JUMPDEST DUP1 PUSH1 0x0 JUMPDEST DUP4 DUP2 LT ISZERO PUSH2 0x5E3 JUMPI DUP2 MLOAD PUSH2 0x5CA DUP9 DUP3 PUSH2 0x56D JUMP JUMPDEST SWAP8 POP PUSH2 0x5D5 DUP4 PUSH2 0x585 JUMP JUMPDEST SWAP3 POP POP PUSH1 0x1 DUP2 ADD SWAP1 POP PUSH2 0x5B6 JUMP JUMPDEST POP DUP6 SWAP4 POP POP POP POP SWAP3 SWAP2 POP POP JUMP JUMPDEST PUSH1 0x0 PUSH1 0x20 DUP3 ADD SWAP1 POP DUP2 DUP2 SUB PUSH1 0x0 DUP4 ADD MSTORE PUSH2 0x60A DUP2 DUP5 PUSH2 0x592 JUMP JUMPDEST SWAP1 POP SWAP3 SWAP2 POP POP JUMP JUMPDEST PUSH1 0x0 DUP2 SWAP1 POP SWAP3 SWAP2 POP POP JUMP JUMPDEST DUP3 DUP2 DUP4 CALLDATACOPY PUSH1 0x0 DUP4 DUP4 ADD MSTORE POP POP POP JUMP JUMPDEST PUSH1 0x0 PUSH2 0x638 DUP4 DUP6 PUSH2 0x612 JUMP JUMPDEST SWAP4 POP PUSH2 0x645 DUP4 DUP6 DUP5 PUSH2 0x61D JUMP JUMPDEST DUP3 DUP5 ADD SWAP1 POP SWAP4 SWAP3 POP POP POP JUMP JUMPDEST PUSH1 0x0 PUSH2 0x65E DUP3 DUP5 DUP7 PUSH2 0x62C JUMP JUMPDEST SWAP2 POP DUP2 SWAP1 POP SWAP4 SWAP3 POP POP POP JUMP JUMPDEST PUSH1 0x0 DUP3 DUP3 MSTORE PUSH1 0x20 DUP3 ADD SWAP1 POP SWAP3 SWAP2 POP POP JUMP JUMPDEST PUSH1 0x0 PUSH1 0x1F NOT PUSH1 0x1F DUP4 ADD AND SWAP1 POP SWAP2 SWAP1 POP JUMP JUMPDEST PUSH1 0x0 PUSH2 0x698 DUP4 DUP6 PUSH2 0x66A JUMP JUMPDEST SWAP4 POP PUSH2 0x6A5 DUP4 DUP6 DUP5 PUSH2 0x61D JUMP JUMPDEST PUSH2 0x6AE DUP4 PUSH2 0x67B JUMP JUMPDEST DUP5 ADD SWAP1 POP SWAP4 SWAP3 POP POP POP JUMP JUMPDEST PUSH1 0x0 DUP2 SWAP1 POP SWAP2 SWAP1 POP JUMP JUMPDEST PUSH2 0x6CC DUP2 PUSH2 0x6B9 JUMP JUMPDEST DUP3 MSTORE POP POP JUMP JUMPDEST PUSH1 0x0 PUSH1 0x60 DUP3 ADD SWAP1 POP DUP2 DUP2 SUB PUSH1 0x0 DUP4 ADD MSTORE PUSH2 0x6ED DUP2 DUP7 DUP9 PUSH2 0x68C JUMP JUMPDEST SWAP1 POP PUSH2 0x6FC PUSH1 0x20 DUP4 ADD DUP6 PUSH2 0x452 JUMP JUMPDEST PUSH2 0x709 PUSH1 0x40 DUP4 ADD DUP5 PUSH2 0x6C3 JUMP JUMPDEST SWAP6 SWAP5 POP POP POP POP POP JUMP JUMPDEST PUSH1 0x0 DUP2 MLOAD SWAP1 POP SWAP2 SWAP1 POP JUMP JUMPDEST PUSH1 0x0 JUMPDEST DUP4 DUP2 LT ISZERO PUSH2 0x73B JUMPI DUP1 DUP3 ADD MLOAD DUP2 DUP5 ADD MSTORE PUSH1 0x20 DUP2 ADD SWAP1 POP PUSH2 0x720 JUMP JUMPDEST PUSH1 0x0 DUP5 DUP5 ADD MSTORE POP POP POP POP JUMP JUMPDEST PUSH1 0x0 PUSH2 0x752 DUP3 PUSH2 0x712 JUMP JUMPDEST PUSH2 0x75C DUP2 DUP6 PUSH2 0x66A JUMP JUMPDEST SWAP4 POP PUSH2 0x76C DUP2 DUP6 PUSH1 0x20 DUP7 ADD PUSH2 0x71D JUMP JUMPDEST PUSH2 0x775 DUP2 PUSH2 0x67B JUMP JUMPDEST DUP5 ADD SWAP2 POP POP SWAP3 SWAP2 POP POP JUMP JUMPDEST PUSH1 0x0 PUSH1 0x60 DUP3 ADD SWAP1 POP DUP2 DUP2 SUB PUSH1 0x0 DUP4 ADD MSTORE PUSH2 0x79A DUP2 DUP7 PUSH2 0x747 JUMP JUMPDEST SWAP1 POP PUSH2 0x7A9 PUSH1 0x20 DUP4 ADD DUP6 PUSH2 0x452 JUMP JUMPDEST PUSH2 0x7B6 PUSH1 0x40 DUP4 ADD DUP5 PUSH2 0x6C3 JUMP JUMPDEST SWAP5 SWAP4 POP POP POP POP JUMP JUMPDEST PUSH32 0x4E487B7100000000000000000000000000000000000000000000000000000000 PUSH1 0x0 MSTORE PUSH1 0x41 PUSH1 0x4 MSTORE PUSH1 0x24 PUSH1 0x0 REVERT JUMPDEST PUSH32 0x4E487B7100000000000000000000000000000000000000000000000000000000 PUSH1 0x0 MSTORE PUSH1 0x32 PUSH1 0x4 MSTORE PUSH1 0x24 PUSH1 0x0 REVERT JUMPDEST PUSH1 0x0 DUP1 REVERT JUMPDEST PUSH1 0x0 DUP1 REVERT JUMPDEST PUSH1 0x0 DUP1 REVERT JUMPDEST PUSH1 0x0 DUP1 DUP4 CALLDATALOAD PUSH1 0x1 PUSH1 0x20 SUB DUP5 CALLDATASIZE SUB SUB DUP2 SLT PUSH2 0x848 JUMPI PUSH2 0x847 PUSH2 0x81C JUMP JUMPDEST JUMPDEST DUP1 DUP5 ADD SWAP3 POP DUP3 CALLDATALOAD SWAP2 POP PUSH8 0xFFFFFFFFFFFFFFFF DUP3 GT ISZERO PUSH2 0x86A JUMPI PUSH2 0x869 PUSH2 0x821 JUMP JUMPDEST JUMPDEST PUSH1 0x20 DUP4 ADD SWAP3 POP PUSH1 0x1 DUP3 MUL CALLDATASIZE SUB DUP4 SGT ISZERO PUSH2 0x886 JUMPI PUSH2 0x885 PUSH2 0x826 JUMP JUMPDEST JUMPDEST POP SWAP3 POP SWAP3 SWAP1 POP JUMP INVALID LOG2 PUSH5 0x6970667358 0x22 SLT KECCAK256 0xF DUP7 EXTCODEHASH DUP6 0x28 COINBASE 0xCE DUP13 SWAP9 SWAP4 MOD PUSH2 0x687 0xC6 0xDC LOG2 JUMPI PUSH18 0xEC89560DDBABE07639EBC0B0ED64736F6C63 NUMBER STOP ADDMOD XOR STOP CALLER "},"methodIdentifiers":{"writeBatch(bytes[],bytes32)":"a1fa65e4","writeBytes(bytes,bytes32)":"20595518","writeString(bytes,bytes32)":"971c2f17"}}}}}