{
  "_format": "hh-sol-artifact-1",
  "contractName": "LogWriter",
  "sourceName": "contracts/LogWriter.sol",
  "abi": [
    {
      "anonymous": false,
      "inputs": [
        {
          "indexed": true,
          "internalType": "address",
          "name": "sender",
          "type": "address"
        },
        {
          "indexed": true,
          "internalType": "bytes32",
          "name": "tag",
          "type": "bytes32"
        },
        {
          "indexed": false,
          "internalType": "bytes",
          "name": "data",
          "type": "bytes"
        },
        {
          "indexed": false,
          "internalType": "bytes32",
          "name": "dataHash",
          "type": "bytes32"
        },
        {
          "indexed": false,
          "internalType": "uint256",
          "name": "timestamp",
          "type": "uint256"
        }
      ],
      "name": "DataWritten",
      "type": "event"
    },
    {
      "inputs": [
        {
          "internalType": "bytes[]",
          "name": "items",
          "type": "bytes[]"
        },
        {
          "internalType": "bytes32",
          "name": "tag",
          "type": "bytes32"
        }
      ],
      "name": "writeBatch",
      "outputs": [
        {
          "internalType": "bytes32[]",
          "name": "hashs",
          "type": "bytes32[]"
        }
      ],
      "stateMutability": "nonpayable",
      "type": "function"
    },
    {
      "inputs": [
        {
          "internalType": "bytes",
          "name": "data",
          "type": "bytes"
        },
        {
          "internalType": "bytes32",
          "name": "tag",
          "type": "bytes32"
        }
      ],
      "name": "writeBytes",
      "outputs": [
        {
          "internalType": "bytes32",
          "name": "hash",
          "type": "bytes32"
        }
      ],
      "stateMutability": "nonpayable",
      "type": "function"
    },
    {
      "inputs": [
        {
          "internalType": "bytes",
          "name": "text",
          "type": "bytes"
        },
        {
          "internalType": "bytes32",
          "name": "tag",
          "type": "bytes32"
        }
      ],
      "name": "writeString",
      "outputs": [
        {
          "internalType": "bytes32",
          "name": "hash",
          "type": "bytes32"
        }
      ],
      "stateMutability": "nonpayable",
      "type": "function"
    }
  ],
  "bytecode": "0x608060405234801561001057600080fd5b506108c4806100206000396000f3fe608060405234801561001057600080fd5b50600436106100415760003560e01c80632059551814610046578063971c2f1714610076578063a1fa65e4146100a6575b600080fd5b610060600480360381019061005b91906103f2565b6100d6565b60405161006d9190610461565b60405180910390f35b610090600480360381019061008b91906103f2565b61014e565b60405161009d9190610461565b60405180910390f35b6100c060048036038101906100bb91906104d2565b6101fd565b6040516100cd91906105f0565b60405180910390f35b600083836040516100e8929190610651565b60405180910390209050813373ffffffffffffffffffffffffffffffffffffffff167f40d02628e1a559c346683636d14de01be76531c5d18de16c149cafd2e7ac03c98686854260405161013f94939291906106d2565b60405180910390a39392505050565b60008084848080601f016020809104026020016040519081016040528093929190818152602001838380828437600081840152601f19601f82011690508083019250505050505050905080805190602001209150823373ffffffffffffffffffffffffffffffffffffffff167f40d02628e1a559c346683636d14de01be76531c5d18de16c149cafd2e7ac03c98385426040516101ed93929190610780565b60405180910390a3509392505050565b606060008484905090508067ffffffffffffffff811115610221576102206107be565b5b60405190808252806020026020018201604052801561024f5781602001602082028036833780820191505090505b50915060005b8181101561034457366000878784818110610273576102726107ed565b5b9050602002810190610285919061082b565b915091506000828260405161029b929190610651565b60405180910390209050808685815181106102b9576102b86107ed565b5b602002602001018181525050863373ffffffffffffffffffffffffffffffffffffffff167f40d02628e1a559c346683636d14de01be76531c5d18de16c149cafd2e7ac03c985858a8981518110610313576103126107ed565b5b60200260200101514260405161032c94939291906106d2565b60405180910390a35050508080600101915050610255565b50509392505050565b600080fd5b600080fd5b600080fd5b600080fd5b600080fd5b60008083601f84011261037c5761037b610357565b5b8235905067ffffffffffffffff8111156103995761039861035c565b5b6020830191508360018202830111156103b5576103b4610361565b5b9250929050565b6000819050919050565b6103cf816103bc565b81146103da57600080fd5b50565b6000813590506103ec816103c6565b92915050565b60008060006040848603121561040b5761040a61034d565b5b600084013567ffffffffffffffff81111561042957610428610352565b5b61043586828701610366565b93509350506020610448868287016103dd565b9150509250925092565b61045b816103bc565b82525050565b60006020820190506104766000830184610452565b92915050565b60008083601f84011261049257610491610357565b5b8235905067ffffffffffffffff8111156104af576104ae61035c565b5b6020830191508360208202830111156104cb576104ca610361565b5b9250929050565b6000806000604084860312156104eb576104ea61034d565b5b600084013567ffffffffffffffff81111561050957610508610352565b5b6105158682870161047c565b93509350506020610528868287016103dd565b9150509250925092565b600081519050919050565b600082825260208201905092915050565b6000819050602082019050919050565b610567816103bc565b82525050565b6000610579838361055e565b60208301905092915050565b6000602082019050919050565b600061059d82610532565b6105a7818561053d565b93506105b28361054e565b8060005b838110156105e35781516105ca888261056d565b97506105d583610585565b9250506001810190506105b6565b5085935050505092915050565b6000602082019050818103600083015261060a8184610592565b905092915050565b600081905092915050565b82818337600083830152505050565b60006106388385610612565b935061064583858461061d565b82840190509392505050565b600061065e82848661062c565b91508190509392505050565b600082825260208201905092915050565b6000601f19601f8301169050919050565b6000610698838561066a565b93506106a583858461061d565b6106ae8361067b565b840190509392505050565b6000819050919050565b6106cc816106b9565b82525050565b600060608201905081810360008301526106ed81868861068c565b90506106fc6020830185610452565b61070960408301846106c3565b95945050505050565b600081519050919050565b60005b8381101561073b578082015181840152602081019050610720565b60008484015250505050565b600061075282610712565b61075c818561066a565b935061076c81856020860161071d565b6107758161067b565b840191505092915050565b6000606082019050818103600083015261079a8186610747565b90506107a96020830185610452565b6107b660408301846106c3565b949350505050565b7f4e487b7100000000000000000000000000000000000000000000000000000000600052604160045260246000fd5b7f4e487b7100000000000000000000000000000000000000000000000000000000600052603260045260246000fd5b600080fd5b600080fd5b600080fd5b600080833560016020038436030381126108485761084761081c565b5b80840192508235915067ffffffffffffffff82111561086a57610869610821565b5b60208301925060018202360383131561088657610885610826565b5b50925092905056fea26469706673582212200f863f852841ce8c989306610687c6dca25771ec89560ddbabe07639ebc0b0ed64736f6c63430008180033",
  "linkReferences": {},
  "deployedLinkReferences": {}
}